{
  "contractName": "StarNotary",
  "abi": [
    {
      "constant": true,
      "inputs": [
        {
          "name": "interfaceId",
          "type": "bytes4"
        }
      ],
      "name": "supportsInterface",
      "outputs": [
        {
          "name": "",
          "type": "bool"
        }
      ],
      "payable": false,
      "stateMutability": "view",
      "type": "function"
    },
    {
      "constant": true,
      "inputs": [
        {
          "name": "",
          "type": "uint256"
        }
      ],
      "name": "starsForSale",
      "outputs": [
        {
          "name": "",
          "type": "uint256"
        }
      ],
      "payable": false,
      "stateMutability": "view",
      "type": "function"
    },
    {
      "constant": true,
      "inputs": [],
      "name": "name",
      "outputs": [
        {
          "name": "",
          "type": "string"
        }
      ],
      "payable": false,
      "stateMutability": "view",
      "type": "function"
    },
    {
      "constant": true,
      "inputs": [
        {
          "name": "tokenId",
          "type": "uint256"
        }
      ],
      "name": "getApproved",
      "outputs": [
        {
          "name": "",
          "type": "address"
        }
      ],
      "payable": false,
      "stateMutability": "view",
      "type": "function"
    },
    {
      "constant": false,
      "inputs": [
        {
          "name": "to",
          "type": "address"
        },
        {
          "name": "tokenId",
          "type": "uint256"
        }
      ],
      "name": "approve",
      "outputs": [],
      "payable": false,
      "stateMutability": "nonpayable",
      "type": "function"
    },
    {
      "constant": true,
      "inputs": [
        {
          "name": "",
          "type": "uint256"
        }
      ],
      "name": "tokenIdToStarInfo",
      "outputs": [
        {
          "name": "name",
          "type": "string"
        }
      ],
      "payable": false,
      "stateMutability": "view",
      "type": "function"
    },
    {
      "constant": false,
      "inputs": [
        {
          "name": "from",
          "type": "address"
        },
        {
          "name": "to",
          "type": "address"
        },
        {
          "name": "tokenId",
          "type": "uint256"
        }
      ],
      "name": "transferFrom",
      "outputs": [],
      "payable": false,
      "stateMutability": "nonpayable",
      "type": "function"
    },
    {
      "constant": false,
      "inputs": [
        {
          "name": "from",
          "type": "address"
        },
        {
          "name": "to",
          "type": "address"
        },
        {
          "name": "tokenId",
          "type": "uint256"
        }
      ],
      "name": "safeTransferFrom",
      "outputs": [],
      "payable": false,
      "stateMutability": "nonpayable",
      "type": "function"
    },
    {
      "constant": true,
      "inputs": [
        {
          "name": "tokenId",
          "type": "uint256"
        }
      ],
      "name": "ownerOf",
      "outputs": [
        {
          "name": "",
          "type": "address"
        }
      ],
      "payable": false,
      "stateMutability": "view",
      "type": "function"
    },
    {
      "constant": true,
      "inputs": [
        {
          "name": "owner",
          "type": "address"
        }
      ],
      "name": "balanceOf",
      "outputs": [
        {
          "name": "",
          "type": "uint256"
        }
      ],
      "payable": false,
      "stateMutability": "view",
      "type": "function"
    },
    {
      "constant": true,
      "inputs": [],
      "name": "symbol",
      "outputs": [
        {
          "name": "",
          "type": "string"
        }
      ],
      "payable": false,
      "stateMutability": "view",
      "type": "function"
    },
    {
      "constant": false,
      "inputs": [
        {
          "name": "to",
          "type": "address"
        },
        {
          "name": "approved",
          "type": "bool"
        }
      ],
      "name": "setApprovalForAll",
      "outputs": [],
      "payable": false,
      "stateMutability": "nonpayable",
      "type": "function"
    },
    {
      "constant": false,
      "inputs": [
        {
          "name": "from",
          "type": "address"
        },
        {
          "name": "to",
          "type": "address"
        },
        {
          "name": "tokenId",
          "type": "uint256"
        },
        {
          "name": "_data",
          "type": "bytes"
        }
      ],
      "name": "safeTransferFrom",
      "outputs": [],
      "payable": false,
      "stateMutability": "nonpayable",
      "type": "function"
    },
    {
      "constant": true,
      "inputs": [
        {
          "name": "owner",
          "type": "address"
        },
        {
          "name": "operator",
          "type": "address"
        }
      ],
      "name": "isApprovedForAll",
      "outputs": [
        {
          "name": "",
          "type": "bool"
        }
      ],
      "payable": false,
      "stateMutability": "view",
      "type": "function"
    },
    {
      "constant": false,
      "inputs": [
        {
          "name": "to",
          "type": "address"
        },
        {
          "name": "tokenId",
          "type": "uint256"
        }
      ],
      "name": "_addTokenTo",
      "outputs": [],
      "payable": false,
      "stateMutability": "nonpayable",
      "type": "function"
    },
    {
      "anonymous": false,
      "inputs": [
        {
          "indexed": true,
          "name": "from",
          "type": "address"
        },
        {
          "indexed": true,
          "name": "to",
          "type": "address"
        },
        {
          "indexed": true,
          "name": "tokenId",
          "type": "uint256"
        }
      ],
      "name": "Transfer",
      "type": "event"
    },
    {
      "anonymous": false,
      "inputs": [
        {
          "indexed": true,
          "name": "owner",
          "type": "address"
        },
        {
          "indexed": true,
          "name": "approved",
          "type": "address"
        },
        {
          "indexed": true,
          "name": "tokenId",
          "type": "uint256"
        }
      ],
      "name": "Approval",
      "type": "event"
    },
    {
      "anonymous": false,
      "inputs": [
        {
          "indexed": true,
          "name": "owner",
          "type": "address"
        },
        {
          "indexed": true,
          "name": "operator",
          "type": "address"
        },
        {
          "indexed": false,
          "name": "approved",
          "type": "bool"
        }
      ],
      "name": "ApprovalForAll",
      "type": "event"
    },
    {
      "constant": false,
      "inputs": [
        {
          "name": "_name",
          "type": "string"
        }
      ],
      "name": "setName",
      "outputs": [],
      "payable": false,
      "stateMutability": "nonpayable",
      "type": "function"
    },
    {
      "constant": false,
      "inputs": [
        {
          "name": "_symbol",
          "type": "string"
        }
      ],
      "name": "setSymbol",
      "outputs": [],
      "payable": false,
      "stateMutability": "nonpayable",
      "type": "function"
    },
    {
      "constant": false,
      "inputs": [
        {
          "name": "_name",
          "type": "string"
        },
        {
          "name": "_tokenId",
          "type": "uint256"
        }
      ],
      "name": "createStar",
      "outputs": [],
      "payable": false,
      "stateMutability": "nonpayable",
      "type": "function"
    },
    {
      "constant": true,
      "inputs": [
        {
          "name": "_tokenId",
          "type": "uint256"
        }
      ],
      "name": "lookUptokenIdToStarInfo",
      "outputs": [
        {
          "name": "",
          "type": "string"
        }
      ],
      "payable": false,
      "stateMutability": "view",
      "type": "function"
    },
    {
      "constant": false,
      "inputs": [
        {
          "name": "_tokenId",
          "type": "uint256"
        },
        {
          "name": "_price",
          "type": "uint256"
        }
      ],
      "name": "putStarUpForSale",
      "outputs": [],
      "payable": false,
      "stateMutability": "nonpayable",
      "type": "function"
    },
    {
      "constant": false,
      "inputs": [
        {
          "name": "_tokenId",
          "type": "uint256"
        }
      ],
      "name": "buyStar",
      "outputs": [],
      "payable": true,
      "stateMutability": "payable",
      "type": "function"
    },
    {
      "constant": false,
      "inputs": [
        {
          "name": "_tokenId1",
          "type": "uint256"
        },
        {
          "name": "_tokenId2",
          "type": "uint256"
        }
      ],
      "name": "exchangeStars",
      "outputs": [],
      "payable": false,
      "stateMutability": "nonpayable",
      "type": "function"
    },
    {
      "constant": false,
      "inputs": [
        {
          "name": "_to",
          "type": "address"
        },
        {
          "name": "_tokenId",
          "type": "uint256"
        }
      ],
      "name": "transferStar",
      "outputs": [],
      "payable": false,
      "stateMutability": "nonpayable",
      "type": "function"
    }
  ],
  "bytecode": "0x608060405261003f6301ffc9a77c01000000000000000000000000000000000000000000000000000000000261007f640100000000026401000000009004565b61007a6380ac58cd7c01000000000000000000000000000000000000000000000000000000000261007f640100000000026401000000009004565b61013c565b63ffffffff7c010000000000000000000000000000000000000000000000000000000002817bffffffffffffffffffffffffffffffffffffffffffffffffffffffff1916141515156100d057600080fd5b6001600080837bffffffffffffffffffffffffffffffffffffffffffffffffffffffff19167bffffffffffffffffffffffffffffffffffffffffffffffffffffffff1916815260200190815260200160002060006101000a81548160ff02191690831515021790555050565b611f348061014b6000396000f300608060405260043610610133576000357c0100000000000000000000000000000000000000000000000000000000900463ffffffff16806301ffc9a7146101385780630564b1301461019c57806306fdde03146101dd578063081812fc1461026d578063095ea7b3146102da57806315e0afa5146103275780631967fd981461035e57806323b872dd146104045780632f1c34ef14610471578063316a43611461049157806342842e0e146104c85780636352211e1461053557806370a08231146105a257806395d89b41146105f95780639697c0a114610689578063a22cb465146106fc578063b84c82461461074b578063b88d4fde146107b4578063c47f002714610867578063d7830ccb146108d0578063e7152a5c14610976578063e985e9c5146109c3578063ff5ce37814610a3e575b600080fd5b34801561014457600080fd5b5061018260048036038101908080357bffffffffffffffffffffffffffffffffffffffffffffffffffffffff19169060200190929190505050610a8b565b604051808215151515815260200191505060405180910390f35b3480156101a857600080fd5b506101c760048036038101908080359060200190929190505050610af2565b6040518082815260200191505060405180910390f35b3480156101e957600080fd5b506101f2610b0a565b6040518080602001828103825283818151815260200191508051906020019080838360005b83811015610232578082015181840152602081019050610217565b50505050905090810190601f16801561025f5780820380516001836020036101000a031916815260200191505b509250505060405180910390f35b34801561027957600080fd5b5061029860048036038101908080359060200190929190505050610ba8565b604051808273ffffffffffffffffffffffffffffffffffffffff1673ffffffffffffffffffffffffffffffffffffffff16815260200191505060405180910390f35b3480156102e657600080fd5b50610325600480360381019080803573ffffffffffffffffffffffffffffffffffffffff16906020019092919080359060200190929190505050610bf9565b005b34801561033357600080fd5b5061035c6004803603810190808035906020019092919080359060200190929190505050610d3e565b005b34801561036a57600080fd5b5061038960048036038101908080359060200190929190505050610d85565b6040518080602001828103825283818151815260200191508051906020019080838360005b838110156103c95780820151818401526020810190506103ae565b50505050905090810190601f1680156103f65780820380516001836020036101000a031916815260200191505b509250505060405180910390f35b34801561041057600080fd5b5061046f600480360381019080803573ffffffffffffffffffffffffffffffffffffffff169060200190929190803573ffffffffffffffffffffffffffffffffffffffff16906020019092919080359060200190929190505050610e3b565b005b61048f60048036038101908080359060200190929190505050610f0a565b005b34801561049d57600080fd5b506104c6600480360381019080803590602001909291908035906020019092919050505061102a565b005b3480156104d457600080fd5b50610533600480360381019080803573ffffffffffffffffffffffffffffffffffffffff169060200190929190803573ffffffffffffffffffffffffffffffffffffffff16906020019092919080359060200190929190505050611088565b005b34801561054157600080fd5b50610560600480360381019080803590602001909291905050506110a9565b604051808273ffffffffffffffffffffffffffffffffffffffff1673ffffffffffffffffffffffffffffffffffffffff16815260200191505060405180910390f35b3480156105ae57600080fd5b506105e3600480360381019080803573ffffffffffffffffffffffffffffffffffffffff169060200190929190505050611127565b6040518082815260200191505060405180910390f35b34801561060557600080fd5b5061060e6111ab565b6040518080602001828103825283818151815260200191508051906020019080838360005b8381101561064e578082015181840152602081019050610633565b50505050905090810190601f16801561067b5780820380516001836020036101000a031916815260200191505b509250505060405180910390f35b34801561069557600080fd5b506106fa600480360381019080803590602001908201803590602001908080601f016020809104026020016040519081016040528093929190818152602001838380828437820191505050505050919291929080359060200190929190505050611249565b005b34801561070857600080fd5b50610749600480360381019080803573ffffffffffffffffffffffffffffffffffffffff1690602001909291908035151590602001909291905050506112a6565b005b34801561075757600080fd5b506107b2600480360381019080803590602001908201803590602001908080601f01602080910402602001604051908101604052809392919081815260200183838082843782019150505050505091929192905050506113e2565b005b3480156107c057600080fd5b50610865600480360381019080803573ffffffffffffffffffffffffffffffffffffffff169060200190929190803573ffffffffffffffffffffffffffffffffffffffff16906020019092919080359060200190929190803590602001908201803590602001908080601f01602080910402602001604051908101604052809392919081815260200183838082843782019150505050505091929192905050506113fc565b005b34801561087357600080fd5b506108ce600480360381019080803590602001908201803590602001908080601f0160208091040260200160405190810160405280939291908181526020018383808284378201915050505050509192919290505050611424565b005b3480156108dc57600080fd5b506108fb6004803603810190808035906020019092919050505061143e565b6040518080602001828103825283818151815260200191508051906020019080838360005b8381101561093b578082015181840152602081019050610920565b50505050905090810190601f1680156109685780820380516001836020036101000a031916815260200191505b509250505060405180910390f35b34801561098257600080fd5b506109c1600480360381019080803573ffffffffffffffffffffffffffffffffffffffff16906020019092919080359060200190929190505050611518565b005b3480156109cf57600080fd5b50610a24600480360381019080803573ffffffffffffffffffffffffffffffffffffffff169060200190929190803573ffffffffffffffffffffffffffffffffffffffff16906020019092919050505061158b565b604051808215151515815260200191505060405180910390f35b348015610a4a57600080fd5b50610a89600480360381019080803573ffffffffffffffffffffffffffffffffffffffff1690602001909291908035906020019092919050505061161f565b005b6000806000837bffffffffffffffffffffffffffffffffffffffffffffffffffffffff19167bffffffffffffffffffffffffffffffffffffffffffffffffffffffff1916815260200190815260200160002060009054906101000a900460ff169050919050565b60086020528060005260406000206000915090505481565b60058054600181600116156101000203166002900480601f016020809104026020016040519081016040528092919081815260200182805460018160011615610100020316600290048015610ba05780601f10610b7557610100808354040283529160200191610ba0565b820191906000526020600020905b815481529060010190602001808311610b8357829003601f168201915b505050505081565b6000610bb382611779565b1515610bbe57600080fd5b6002600083815260200190815260200160002060009054906101000a900473ffffffffffffffffffffffffffffffffffffffff169050919050565b6000610c04826110a9565b90508073ffffffffffffffffffffffffffffffffffffffff168373ffffffffffffffffffffffffffffffffffffffff1614151515610c4157600080fd5b8073ffffffffffffffffffffffffffffffffffffffff163373ffffffffffffffffffffffffffffffffffffffff161480610c815750610c80813361158b565b5b1515610c8c57600080fd5b826002600084815260200190815260200160002060006101000a81548173ffffffffffffffffffffffffffffffffffffffff021916908373ffffffffffffffffffffffffffffffffffffffff160217905550818373ffffffffffffffffffffffffffffffffffffffff168273ffffffffffffffffffffffffffffffffffffffff167f8c5be1e5ebec7d5bd14f71427d1e84f3dd0314c0f7b2291e5b200ac8c7c3b92560405160405180910390a4505050565b600080610d4a846110a9565b9150610d55836110a9565b9050610d6182856117eb565b610d6b818561161f565b610d7581846117eb565b610d7f828461161f565b50505050565b6007602052806000526040600020600091509050806000018054600181600116156101000203166002900480601f016020809104026020016040519081016040528092919081815260200182805460018160011615610100020316600290048015610e315780601f10610e0657610100808354040283529160200191610e31565b820191906000526020600020905b815481529060010190602001808311610e1457829003601f168201915b5050505050905081565b610e45338261191a565b1515610e5057600080fd5b600073ffffffffffffffffffffffffffffffffffffffff168273ffffffffffffffffffffffffffffffffffffffff1614151515610e8c57600080fd5b610e9683826119af565b610ea083826117eb565b610eaa828261161f565b808273ffffffffffffffffffffffffffffffffffffffff168473ffffffffffffffffffffffffffffffffffffffff167fddf252ad1be2c89b69c2b068fc378daa952ba7f163c4a11628f55a4df523b3ef60405160405180910390a4505050565b60008060006008600085815260200190815260200160002054111515610f2f57600080fd5b60086000848152602001908152602001600020549150610f4e836110a9565b9050813410151515610f5f57600080fd5b610f6981846117eb565b610f73338461161f565b8073ffffffffffffffffffffffffffffffffffffffff166108fc839081150290604051600060405180830381858888f19350505050158015610fb9573d6000803e3d6000fd5b508134111561100c573373ffffffffffffffffffffffffffffffffffffffff166108fc8334039081150290604051600060405180830381858888f1935050505015801561100a573d6000803e3d6000fd5b505b60006008600085815260200190815260200160002081905550505050565b3373ffffffffffffffffffffffffffffffffffffffff1661104a836110a9565b73ffffffffffffffffffffffffffffffffffffffff1614151561106c57600080fd5b8060086000848152602001908152602001600020819055505050565b6110a483838360206040519081016040528060008152506113fc565b505050565b6000806001600084815260200190815260200160002060009054906101000a900473ffffffffffffffffffffffffffffffffffffffff169050600073ffffffffffffffffffffffffffffffffffffffff168173ffffffffffffffffffffffffffffffffffffffff161415151561111e57600080fd5b80915050919050565b60008073ffffffffffffffffffffffffffffffffffffffff168273ffffffffffffffffffffffffffffffffffffffff161415151561116457600080fd5b600360008373ffffffffffffffffffffffffffffffffffffffff1673ffffffffffffffffffffffffffffffffffffffff168152602001908152602001600020549050919050565b60068054600181600116156101000203166002900480601f0160208091040260200160405190810160405280929190818152602001828054600181600116156101000203166002900480156112415780601f1061121657610100808354040283529160200191611241565b820191906000526020600020905b81548152906001019060200180831161122457829003601f168201915b505050505081565b611251611dcf565b60206040519081016040528084815250905080600760008481526020019081526020016000206000820151816000019080519060200190611293929190611de3565b509050506112a13383611ab2565b505050565b3373ffffffffffffffffffffffffffffffffffffffff168273ffffffffffffffffffffffffffffffffffffffff16141515156112e157600080fd5b80600460003373ffffffffffffffffffffffffffffffffffffffff1673ffffffffffffffffffffffffffffffffffffffff16815260200190815260200160002060008473ffffffffffffffffffffffffffffffffffffffff1673ffffffffffffffffffffffffffffffffffffffff16815260200190815260200160002060006101000a81548160ff0219169083151502179055508173ffffffffffffffffffffffffffffffffffffffff163373ffffffffffffffffffffffffffffffffffffffff167f17307eab39ab6107e8899845ad3d59bd9653f200f220920489ca2b5937696c3183604051808215151515815260200191505060405180910390a35050565b80600690805190602001906113f8929190611e63565b5050565b611407848484610e3b565b61141384848484611b58565b151561141e57600080fd5b50505050565b806005908051906020019061143a929190611e63565b5050565b6060611448611dcf565b6007600084815260200190815260200160002060206040519081016040529081600082018054600181600116156101000203166002900480601f0160208091040260200160405190810160405280929190818152602001828054600181600116156101000203166002900480156115005780601f106114d557610100808354040283529160200191611500565b820191906000526020600020905b8154815290600101906020018083116114e357829003601f168201915b50505050508152505090508060000151915050919050565b61152233826117eb565b61152c828261161f565b808273ffffffffffffffffffffffffffffffffffffffff163373ffffffffffffffffffffffffffffffffffffffff167fddf252ad1be2c89b69c2b068fc378daa952ba7f163c4a11628f55a4df523b3ef60405160405180910390a45050565b6000600460008473ffffffffffffffffffffffffffffffffffffffff1673ffffffffffffffffffffffffffffffffffffffff16815260200190815260200160002060008373ffffffffffffffffffffffffffffffffffffffff1673ffffffffffffffffffffffffffffffffffffffff16815260200190815260200160002060009054906101000a900460ff16905092915050565b600073ffffffffffffffffffffffffffffffffffffffff166001600083815260200190815260200160002060009054906101000a900473ffffffffffffffffffffffffffffffffffffffff1673ffffffffffffffffffffffffffffffffffffffff1614151561168d57600080fd5b816001600083815260200190815260200160002060006101000a81548173ffffffffffffffffffffffffffffffffffffffff021916908373ffffffffffffffffffffffffffffffffffffffff1602179055506117326001600360008573ffffffffffffffffffffffffffffffffffffffff1673ffffffffffffffffffffffffffffffffffffffff16815260200190815260200160002054611d7a90919063ffffffff16565b600360008473ffffffffffffffffffffffffffffffffffffffff1673ffffffffffffffffffffffffffffffffffffffff168152602001908152602001600020819055505050565b6000806001600084815260200190815260200160002060009054906101000a900473ffffffffffffffffffffffffffffffffffffffff169050600073ffffffffffffffffffffffffffffffffffffffff168173ffffffffffffffffffffffffffffffffffffffff161415915050919050565b8173ffffffffffffffffffffffffffffffffffffffff1661180b826110a9565b73ffffffffffffffffffffffffffffffffffffffff1614151561182d57600080fd5b6118806001600360008573ffffffffffffffffffffffffffffffffffffffff1673ffffffffffffffffffffffffffffffffffffffff16815260200190815260200160002054611d9b90919063ffffffff16565b600360008473ffffffffffffffffffffffffffffffffffffffff1673ffffffffffffffffffffffffffffffffffffffff1681526020019081526020016000208190555060006001600083815260200190815260200160002060006101000a81548173ffffffffffffffffffffffffffffffffffffffff021916908373ffffffffffffffffffffffffffffffffffffffff1602179055505050565b600080611926836110a9565b90508073ffffffffffffffffffffffffffffffffffffffff168473ffffffffffffffffffffffffffffffffffffffff16148061199557508373ffffffffffffffffffffffffffffffffffffffff1661197d84610ba8565b73ffffffffffffffffffffffffffffffffffffffff16145b806119a657506119a5818561158b565b5b91505092915050565b8173ffffffffffffffffffffffffffffffffffffffff166119cf826110a9565b73ffffffffffffffffffffffffffffffffffffffff161415156119f157600080fd5b600073ffffffffffffffffffffffffffffffffffffffff166002600083815260200190815260200160002060009054906101000a900473ffffffffffffffffffffffffffffffffffffffff1673ffffffffffffffffffffffffffffffffffffffff16141515611aae5760006002600083815260200190815260200160002060006101000a81548173ffffffffffffffffffffffffffffffffffffffff021916908373ffffffffffffffffffffffffffffffffffffffff1602179055505b5050565b600073ffffffffffffffffffffffffffffffffffffffff168273ffffffffffffffffffffffffffffffffffffffff1614151515611aee57600080fd5b611af8828261161f565b808273ffffffffffffffffffffffffffffffffffffffff16600073ffffffffffffffffffffffffffffffffffffffff167fddf252ad1be2c89b69c2b068fc378daa952ba7f163c4a11628f55a4df523b3ef60405160405180910390a45050565b600080611b7a8573ffffffffffffffffffffffffffffffffffffffff16611dbc565b1515611b895760019150611d71565b8473ffffffffffffffffffffffffffffffffffffffff1663150b7a02338887876040518563ffffffff167c0100000000000000000000000000000000000000000000000000000000028152600401808573ffffffffffffffffffffffffffffffffffffffff1673ffffffffffffffffffffffffffffffffffffffff1681526020018473ffffffffffffffffffffffffffffffffffffffff1673ffffffffffffffffffffffffffffffffffffffff16815260200183815260200180602001828103825283818151815260200191508051906020019080838360005b83811015611c7e578082015181840152602081019050611c63565b50505050905090810190601f168015611cab5780820380516001836020036101000a031916815260200191505b5095505050505050602060405180830381600087803b158015611ccd57600080fd5b505af1158015611ce1573d6000803e3d6000fd5b505050506040513d6020811015611cf757600080fd5b8101908080519060200190929190505050905063150b7a027c0100000000000000000000000000000000000000000000000000000000027bffffffffffffffffffffffffffffffffffffffffffffffffffffffff1916817bffffffffffffffffffffffffffffffffffffffffffffffffffffffff19161491505b50949350505050565b6000808284019050838110151515611d9157600080fd5b8091505092915050565b600080838311151515611dad57600080fd5b82840390508091505092915050565b600080823b905060008111915050919050565b602060405190810160405280606081525090565b828054600181600116156101000203166002900490600052602060002090601f016020900481019282601f10611e2457805160ff1916838001178555611e52565b82800160010185558215611e52579182015b82811115611e51578251825591602001919060010190611e36565b5b509050611e5f9190611ee3565b5090565b828054600181600116156101000203166002900490600052602060002090601f016020900481019282601f10611ea457805160ff1916838001178555611ed2565b82800160010185558215611ed2579182015b82811115611ed1578251825591602001919060010190611eb6565b5b509050611edf9190611ee3565b5090565b611f0591905b80821115611f01576000816000905550600101611ee9565b5090565b905600a165627a7a72305820f74ec3291b7b7c726d3bc004ea835a827735c69ce814ac5443eb0d34611f59140029",
  "source": "pragma solidity ^0.4.23;\n\nimport 'openzeppelin-solidity/contracts/token/ERC721/ERC721.sol';\n\ncontract StarNotary is ERC721 {\n\n    struct Star {\n        string name;\n    }\n\n//  Add a name and a symbol for your starNotary tokens\n    string public name;\n    string public symbol;\n\n    function setName(string _name) public{\n        name = _name;\n    }\n\n    function setSymbol(string _symbol) public{\n        symbol = _symbol;\n    }\n//\n\n    mapping(uint256 => Star) public tokenIdToStarInfo;\n    mapping(uint256 => uint256) public starsForSale;\n\n    function createStar(string _name, uint256 _tokenId) public {\n        Star memory newStar = Star(_name);\n\n        tokenIdToStarInfo[_tokenId] = newStar;\n\n        _mint(msg.sender, _tokenId);\n    }\n\n// Add a function lookUptokenIdToStarInfo, that looks up the stars using the Token ID, and then returns the name of the star.\n    function lookUptokenIdToStarInfo(uint256 _tokenId) public view returns (string ) {\n        Star memory s = tokenIdToStarInfo[_tokenId];\n        return s.name;\n    }\n//\n\n    function putStarUpForSale(uint256 _tokenId, uint256 _price) public {\n        require(ownerOf(_tokenId) == msg.sender);\n\n        starsForSale[_tokenId] = _price;\n    }\n\n    function buyStar(uint256 _tokenId) public payable {\n        require(starsForSale[_tokenId] > 0);\n\n        uint256 starCost = starsForSale[_tokenId];\n        address starOwner = ownerOf(_tokenId);\n        require(msg.value >= starCost);\n\n        _removeTokenFrom(starOwner, _tokenId);\n        _addTokenTo(msg.sender, _tokenId);\n\n        starOwner.transfer(starCost);\n\n        if(msg.value > starCost) {\n            msg.sender.transfer(msg.value - starCost);\n        }\n        starsForSale[_tokenId] = 0;\n      }\n\n// Add a function called exchangeStars, so 2 users can exchange their star tokens...\n//Do not worry about the price, just write code to exchange stars between users.\n\n    function exchangeStars(uint256 _tokenId1, uint256 _tokenId2) public{\n\n        // 1) User 1 puts his/her star for sale\n        \n        // putStarUpForSale( _tokenId1,  _price);\n\n        // 2) User 2 puts his/her star for sale\n        // putStarUpForSale( _tokenId1,  _price);\n\n        // 3) User 1 calls the function exchangeStars, to get the star \n        address user1 = ownerOf(_tokenId1);\n        address user2 = ownerOf(_tokenId2);\n\n        //exchanging ..\n        _removeTokenFrom(user1, _tokenId1);\n        _addTokenTo( user2, _tokenId1);\n        _removeTokenFrom(user2, _tokenId2);\n        _addTokenTo( user1, _tokenId2);\n    }\n\n\n\n/* \n1) User 1 puts his/her star for sale\n2) User 2 puts his/her star for sale\n3) User 1 calls the function exchangeStars, to get the star \nfrom User 2 that is on sale, in exchange of his/her star that is on sale\nThe user 1 provides the following parameters to exchangeStars: \nid token star for sale user 1, id token star for sale user 2\n\nYou just exchange 1 star from user1 and 1 star from user2\nJust verify that the owner of _tokenId1 is the one executing the function\n *///\n\n// Write a function to Transfer a Star. The function should transfer a star from the address of the caller.\n// The function should accept 2 arguments, the address to transfer the star to, and the token ID of the star.\n//\n    function transferStar(address _to, uint256 _tokenId) public{\n                \n        _removeTokenFrom(msg.sender, _tokenId);\n        _addTokenTo(_to, _tokenId);\n\n        emit Transfer(msg.sender, _to, _tokenId);\n    }\n}\n",
  "sourcePath": "/Users/msharekh/Google Drive/ Blockchain Developer Nanodegree/Project5-Decentralized-Start-Notary-Service-Project/contracts/starNotary.sol",
  "compiler": {
    "name": "solc",
    "version": "0.4.25+commit.59dbf8f1.Emscripten.clang"
  },
  "schemaVersion": "2.0.2",
  "updatedAt": "2019-01-20T22:14:40.857Z"
}